:100000000C942A000C9447000C9447000C94470071
:100010000C9447000C9447000C9447000C94570034
:100020000C9447000C9447000C9447000C94470034
:100030000C9447000C949E000C9447000C944700CD
:100040000C9447000C9447000C9447000C94470014
:100050000C94470011241FBECFE5D8E0DEBFCDBF12
:1000600010E0A0E6B0E0E0ECF2E002C005900D92F6
:10007000A837B107D9F720E0A8E7B0E001C01D928A
:10008000AD37B207E1F70E94FB000C945E010C94BF
:10009000000010BC83E389B98AB188618AB98AB14A
:1000A00080688AB908955D9BFECF8CB908951F9230
:1000B0000F920FB60F9211248F938FEF82BB8BBBE1
:1000C0008F910F900FBE0F901F9018958FEF81BBEF
:1000D0008ABB8FB582608FBD8EB58A618EBD89B7B0
:1000E000806189BF8FE19EE497BD86BD789481B31E
:1000F000886B81BB8AB38A6A8ABB0895613019F420
:100100002CEF38E002C028EE33E0E82FF0E0EE0FED
:10011000FF1FE059FF4F318320830895613019F4A8
:1001200020ED37E002C028E532E0E82FF0E0EE0FE6
:10013000FF1FE859FF4F3183208308951F920F92CC
:100140000FB60F9211242F933F934F935F936F93AA
:100150007F938F939F93AF93BF93EF93FF932CB1B4
:1001600020937B00822F8178813879F5622F60712E
:1001700070E0759567957595679575956795759513
:10018000679560937800822F807690E095958795AB
:100190009595879595958795959587959595879547
:1001A00080937900287030E035952795359527950F
:1001B0003595279520937C000E947E0060917C00FD
:1001C000809179000E948E0005C081E080937A00C2
:1001D0000E945300FF91EF91BF91AF919F918F913A
:1001E0007F916F915F914F913F912F910F900FBE33
:1001F0000F901F9018950E9466000E94490080E0B1
:1002000090E057C02CB53DB5243F314008F450C0B4
:100210002CB53DB5253C394008F04AC04CB55DB51C
:10022000FC01EE0FFF1FE059FF4F20813181421783
:100230005307C8F022B3FC01EC59FF4F408130E076
:10024000042E02C0359527950A94E2F720FF0BC0D3
:1002500052B321E030E002C0220F331F4A95E2F78B
:100260002095252322BB4CB55DB5FC01EE0FFF1F89
:10027000E859FF4F2081318124173507C8F42BB38B
:10028000FC01E05AFF4F408130E0042E02C035955A
:1002900027950A94E2F720FF0BC05BB321E030E022
:1002A00002C0220F331F4A95E2F7209525232BBB6E
:1002B0000196843091050CF4A5CFA1CFF894FFCF1F
:1002C0000103050703040507E803E803E803E8035F
:0802D000E803E803E803E8037A
:00000001FF
